:100000000C942A000C9447000C9447000C94470071
:100010000C9447000C9447000C9447000C94470044
:100020000C9402010C9447000C9447000C94470078
:100030000C9447000C9447000C9447000C94470024
:100040000C9447000C9447000C9447000C94470014
:100050000C94470011241FBECFE5D4E0DEBFCDBF16
:1000600010E0A0E6B0E0E0E4F3E002C005900D92FD
:10007000A837B107D9F720E0A8E7B0E001C01D928A
:10008000A038B207E1F70E949F000C949E010C94E7
:100090000000CF93DF93EB012AE030E0B9010E942A
:1000A000760141E048BBFB01E459FF4F40814BBB67
:1000B000E3ECF9E03197F1F700C0000042E048BB03
:1000C000FC01E459FF4F80818BBB83EC99E00197E1
:1000D000F1F700C00000CE01B9010E94760124E0D2
:1000E00028BBFB01E459FF4F20812BBBE3ECF9E077
:1000F0003197F1F700C0000028E028BBFC01E4596B
:10010000FF4F80818BBB83EC99E00197F1F700C032
:100110000000DF91CF9108958FEF8ABB87BB0895D0
:10012000660F771F660F771F660F771F862B85BBBD
:1001300008958FEF8ABB87BB84BB11BA08950E94D4
:1001400099000E948C0084E08EBD2EEE35E83DBD06
:100150002CBD89BF7894E0917A00F0917B00EE0F7E
:10016000FF1FEA59FF4F8081918190937F00809318
:100170007E00E0917800F0917900EE0FFF1FE05AC9
:10018000FF4F8081918190937D0080937C0000E0FF
:1001900010E0C0E0D0E080917A0090917B00009761
:1001A00031F08130910531F0029749F406C0C4E086
:1001B000D0E005C0C2E0D0E002C0C1E0D0E0809154
:1001C000780090917900009731F08130910531F0FD
:1001D000029749F406C001E010E005C002E010E01B
:1001E00002C004E010E060917C0070917D0080917D
:1001F0007E0090917F000E944900B801CE010E94CC
:100200009000C9CF1F920F920FB60F9211242F9317
:100210005F936F937F938F939F93AF93BF93EF936E
:10022000FF938EEE95E89DBD8CBD98B381E0892744
:1002300088BB98B382E0892788BB80917E0090912B
:100240007F009923FCF0019790937F0080937E00BC
:100250000196C1F480917A0090917B00019663E051
:1002600070E00E94760190937B0080937A00880F63
:10027000991FFC01EA59FF4F8081918190937F0083
:1002800080937E0080917C0090917D009923FCF00A
:10029000019790937D0080937C000196C1F480913A
:1002A000780090917900019663E070E00E947601F9
:1002B0009093790080937800880F991FFC01E05A91
:1002C000FF4F8081918190937D0080937C00FF910E
:1002D000EF91BF91AF919F918F917F916F915F91BE
:1002E0002F910F900FBE0F901F90189597FB072E20
:1002F00016F4009407D077FD09D00E948A0107FC0C
:1003000005D03EF4909581959F4F08957095619525
:100310007F4F0895AA1BBB1B51E107C0AA1FBB1F3B
:10032000A617B70710F0A61BB70B881F991F5A9581
:10033000A9F780959095BC01CD010895F894FFCF61
:100340000A0005000500050005000A00C0F9A4B078
:08035000999282F880980000E8
:00000001FF
